:020000040800F2
:10000000509000205D02000817360008F13100080A
:100010001536000831090008E16100080000000001
:100020000000000000000000000000009D0100082A
:10003000690A000800000000F9010008C543000833
:1000400077020008770200087702000877020008AC
:10005000770200087702000877020008770200089C
:10006000770200087702000877020008770200088C
:10007000770200087702000877020008A10900084B
:10008000770200087702000877020008770200086C
:10009000770200087702000877020008770200085C
:1000A00077020008954400087702000877020008EC
:1000B000770200087702000877020008770200083C
:1000C000770200087702000877020008770200082C
:1000D0007702000825490008770200087702000827
:1000E000770200087702000877020008770200080C
:1000F00077020008770200087702000877020008FC
:1001000077020008770200087702000877020008EB
:1001100077020008770200087702000877020008DB
:100120007702000877020008AD090008770200088E
:1001300077020008770200087702000877020008BB
:10014000770200087702000877020008B536000839
:100150007702000877020008B90900087702000852
:10016000770200087702000877020008770200088B
:1001700077020008770200087702000800000000FC
:100180007702000877020008DFF80CD000F02AFBA5
:1001900000480047A16B0008509000202C4B1968C4
:1001A0000868B0E8F04F80F30988BFF36F8F4FF015
:1001B000000080F3118870470000000008480068C4
:1001C000006880F308884FF0000080F3148862B65E
:1001D00061B6BFF34F8FBFF36F8F00DF00BF00BF6B
:1001E00008ED00E0DFF80C00016841F470010160E7
:1001F000704700BF88ED00E0EFF30980BFF36F8F19
:10020000134B1A681EF0100F08BF20ED108A20E96A
:10021000F04F106009B44FF0500080F31188BFF325
:100220004F8FBFF36F8F07F013FA4FF0000080F38A
:10023000118809BC19680868B0E8F04F1EF0100F6B
:1002400008BFB0EC108A80F30988BFF36F8F704746
:1002500028000020EFF30580704700000648804723
:1002600006480047FEE7FEE7FEE7FEE7FEE7FEE79B
:10027000FEE7FEE7FEE7FEE7854400088901000887
:100280002DE9F05F0546002092469B4688460646CB
:10029000814640241BE0284641464746224600F05E
:1002A0009AF953465A46C01A914110D3114618463E
:1002B000224600F081F92D1A67EB01084F462246CD
:1002C0000120002100F078F917EB00094E41201EB3
:1002D000A4F10104DFDC484631462A464346BDE826
:1002E000F09F40EA01039B0703D009E008C9121FF1
:1002F00008C0042AFAD203E011F8013B00F8013BE0
:10030000521EF9D27047D2B201E000F8012B491E0B
:10031000FBD270470022F6E710B513460A460446A2
:100320001946FFF7F0FF204610BD2DE9FE4F80462D
:1003300081EA0300C00F0C46009021F0004123F039
:100340000045B8EB0200A94105D24046214690463F
:100350001C460B46024623F00040104347D0270DB1
:10036000C7F30A00C3F30A510290401A01904028D3
:100370006BDAC3F3130040F4801B0098924620B15F
:100380000023D2EB030A63EB0B0B01985946C0F133
:100390004002504600F010F906460D4650465946B8
:1003A000019A00F028F910EB08006141002487EA67
:1003B000115284EAE7731A4340D0009A62B3019A5B
:1003C000012A4FEA075215DC001B61EB02014FF0D6
:1003D000004202EA0752CDE90042001C41F58011BB
:1003E00032462B4600F028F903B0BDE8F08F4046B6
:1003F0002146F9E7001B61EB0201001C41F5801367
:1004000000185B412018A2F5001747EB030140EAF2
:10041000D570B6196D4111E06D084FEA360645EA10
:10042000C0754FEA0752001B61EB0201001C41F549
:10043000801149084FEA30000019514132462B46DD
:1004400003B0BDE8F04F00F0E8B80098012240008A
:100450000023D0EB020263EBE073009821464FEAE1
:10046000E074B8EB000061EB0401E9E783F00043BE
:100470005BE781F0004158E72DE9FE4F81EA030474
:1004800004F0004421F0004100944FF0000B23F0F1
:10049000004350EA01045ED052EA03045BD0C3F388
:1004A0000A54C1F30A552C44A4F2F3340194A0FB7E
:1004B0000254C1F3130141F48011C3F3130343F455
:1004C000801301FB024400FB034E840A970A44EAAE
:1004D000815447EA8357A4FB076802958D0A05FB00
:1004E00007854FEA932C04FB0C542705029D4FEA25
:1004F000065847EA1637B5EB08056EEB070C870E72
:10050000920E47EA811742EA8312A7FB0201B6EB7B
:100510000B0164EB00042B0D43EA0C335E1844EB33
:100520001C50DA465146E7FB0201C5F313044FEABB
:100530000B3343EA14534FEA0432019C43EA0603A7
:10054000A4F10C040294009CCDE900B400F074F80E
:1005500003B0BDE8F08F00200146F9E730B5041E76
:1005600071F1000404DB4FF00044404264EB0101F0
:10057000141E73F1000405DB1C464FF00043524289
:1005800063EB0403994208BF904230BD30B50B467F
:10059000014600202022012409E021FA02F59D42B3
:1005A00005D303FA02F5491B04FA02F52844151E87
:1005B000A2F10102F1DC30BD202A04DB203A00FA6E
:1005C00002F1002070479140C2F1200320FA03F3AA
:1005D000194390407047202A04DB203A21FA02F0A8
:1005E0000021704721FA02F3D040C2F1200291406D
:1005F000084319467047202A06DBCB17203A41FAF8
:1006000002F043EAE07306E041FA02F3D040C2F19F
:100610002002914008431946704710B5141E73F12B
:10062000000408DA401C41F1000192185B411A43B2
:1006300001D120F0010010BD2DE9F04D92469B46FE
:1006400011B1B1FA81F202E0B0FA80F220329046A4
:10065000FFF7B2FF04460F4640EA0A0041EA0B01E9
:1006600053465A46084313D0114653EA010019D0A5
:10067000C8F140025046FFF7AEFF05460E46504611
:1006800059464246FFF798FF084305D0012004E091
:1006900020463946BDE8F08D0020054346EAE07665
:1006A0002C4337430A986305E40AA0EB08000022B4
:1006B000FD0A44EA47540A3002D500200146E9E722
:1006C000010510196941DDE9084500196941BDE8D6
:1006D000F04DA2E72DE9F04D81EA030404F0004B50
:1006E00021F0004514464FF0000A23F0004150EA83
:1006F000050220D054EA01021DD0C5F30A57024674
:10070000C5F31303C1F31300C1F30A5640F4801577
:1007100043F48013A7EB0608101BD64608F2FD38F9
:1007200073EB050002D308F1010801E092185B4168
:10073000B8F1000F03DA00200146BDE8F08D00207B
:100740004FF48011064684460EE0171B73EB050735
:1007500005D3121B63EB050306434CEA010C490861
:100760004FEA300092185B4150EA0107EDD152EA9E
:10077000030012D082EA040083EA0501084305D091
:10078000101BAB4106D20122002306E000224FF0ED
:10079000004302E06FF0010253101AEB06004CEB2D
:1007A000085110EB0A0041EB0B01BDE8F04DFFF7DB
:1007B00034BFC1F30A52C1F3130140F2FF3341F4D5
:1007C00080119A4202DA00200146704740F233431A
:1007D0009A42A2F2334202DC5242FFF7FCBEFFF71C
:1007E000EBBE0000064C074D06E0E06840F0010358
:1007F00094E8070098471034AC42F6D3FFF7C8FCE2
:10080000288100084881000870B58C1810F8015B39
:1008100015F0070301D110F8013B2A1106D110F899
:10082000012B03E010F8016B01F8016B5B1EF9D19D
:100830002B0705D40023521E0DD401F8013BFAE723
:1008400010F8013BCB1A921C03E013F8015B01F88E
:10085000015B521EF9D5A142D8D3002070BD000023
:1008600010B501246103034800F04CFC00B10024E2
:10087000204610BD000802400146014801F0C0BEFC
:10088000B405002010B5044801F0CCFE042801D0C6
:10089000012010BD002010BDB405002010B500F0EF
:1008A00015F8012801D0012010BD074801F0D0FE45
:1008B000040006D14FF40061034801F047FD00B188
:1008C0000124204610BD0000B405002008B5012019
:1008D0008DF80000FFF7C4FF10B900208DF800006C
:1008E0009DF8000008BD0000134610B50A460146F9
:1008F0000024034801F04CFF00B10124204610BD44
:10090000B4050020024800220121406806F008BA20
:1009100014000020134610B50A460146002403487F
:1009200001F0CCFF00B10124204610BDB405002029
:10093000FEE70020704700207047000010B500223D
:100940000449054804F027F90449034804F01AF95A
:10095000002010BD2852002058450020284A0020C1
:1009600010B50146034804F00DF9024804F0EFF811
:10097000002010BD584500200020704730B50D46BE
:1009800004460021152002F06FFE0021204602F0EF
:100990006BFE2846BDE83040002102F065BE000035
:1009A000014800F033B9000090060020014800F033
:1009B0002DB9000094070020014800F027B900007D
:1009C0003407002001681823CAB2103AB2FBF3F2D0
:1009D000054B6FF30901032A9B5CC36500D9091D10
:1009E0008165084670470000D880000810B50146B0
:1009F00000208B698A6A4FF0C07453B1B3F5005F71
:100A000015D072B1012A0CD0022A0AD0032A09D1CA
:100A100004E01AB1012A06D0022A03D1C96AC90129
:100A200000D5012010BDC96AA142FAD010BD002A2C
:100A3000F7D0012AF2D0022AF3D0032AF3D010BD56
:100A400030B50468256825F4802525600468636056
:100A50008368402B036803D099600068C26030BD92
:100A60009A600068C16030BD704772B6FEE7002230
:100A7000AFF3008030B50E4B054601205C7A002CA8
:100A800014D1587A1C54587A03EB800045605D7A83
:100A900003F108002A54587A421C5A723030087008
:100AA0003A2048702F208870CC70002030BD0000A4
:100AB0003C0800202DE9F04F0024DDE909EA9B46BF
:100AC00001254FF0030900BF05FA04F301EA03060C
:100AD0009E4238D1D0F800C0660009FA06F72CEA29
:100AE000070CC0F800C0D0F800C002FA06F84CEAC3
:100AF000080CC0F800C0012A01D0022A1BD1D0F88E
:100B000008C02CEA070CC0F808C0D0F808800EFA1C
:100B100006FC48EA0C08C0F80880D0F804C02CEAAB
:100B2000030CC0F804C0D0F804C00BFA04F34CEA7C
:100B3000030CC0F804C0C368BB43C360C7680AFAAB
:100B400006F31F43C760641C102CBDD3BDE8F08FB3
:100B50002DE9F0410446876D00F0E6FA064694F868
:100B600035000025022806D08020606584F83450C6
:100B70000120BDE8F0812068016821F016010160C4
:100B80002068416921F080014161206C08B9A06CA6
:100B900020B12068016821F0080101602068016827
:100BA00021F0010101600CE000F0BEFA801B052875
:100BB00007D920206065032084F8350084F834507C
:100BC000D7E720680068C007EED194F85C103F209A
:100BD0008840B860012084F8350084F83450002043
:100BE000C7E790F83510022903D080214165012024
:100BF0007047052180F835100068016821F0010177
:100C0000016000207047406D704700002DE9F843F7
:100C100004464FF00009CDF8009063484FF4165198
:100C2000A56D0068B0FBF1F72E6894F85C10082001
:100C300000FA01F131420FD021680A6852070BD542
:100C40000A6822F004020A6094F85C108840A860E8
:100C5000606D40F00100606594F85C104FF0010891
:100C600008FA01F0304208D021684969090604D524
:100C7000A860606D40F00200606594F85C1004208C
:100C80008840304208D021680968890704D5A860E7
:100C9000606D40F00400606594F85C10102088409E
:100CA000304218D021680968090714D5A860206867
:100CB0000168490304D50068000308D5A16C07E06A
:100CC0000168C90503D4016821F008010160216CA5
:100CD00009B12046884794F85C10202088403042B3
:100CE00031D021680968C9062DD5A86094F835006F
:100CF00005282068016806D0490347D5006800032D
:100D00001DD4616C1CE021F016010160206841696E
:100D100021F080014161206C08B9A06C20B12068ED
:100D2000016821F00801016094F85C103F208840C0
:100D3000A86084F8358084F83490216D1FE0E16B61
:100D400009B120468847606D00282BD0606DC00730
:100D500014D0052084F835002068016821F00101D5
:100D600001600098401C0090B84203D820680068D9
:100D7000C007F6D184F8358084F83490E16C0029FE
:100D800010D001B02046BDE8F04308470168C9050E
:100D9000D5D4016821F01001016084F8358084F811
:100DA0003490CCE7BDE8F883100000202DE9F04135
:100DB000044600F0B9F906465CB1022084F835001B
:100DC000002584F834502068016821F00101016099
:100DD0000DE00120BDE8F08100F0A6F9801B052898
:100DE00005D920206065032084F83500F2E72068EB
:100DF0000068C007F0D12268116820480140D4E99A
:100E000001031843D4E90336334318436369184395
:100E1000A3691843E3691843236A18430843616AC6
:100E2000042903D1D4E90B13194308431060206847
:100E30004069666A20F0070130460E430127042806
:100E40000CD1A06A0643E06A40B12046FFF7CEFD10
:100E500020B14020606584F83570BAE720684661AB
:100E60002046FFF7AFFD94F85C203F219140816060
:100E7000656584F835700020ACE700003F8010F015
:100E80002DE9F0410446866D90F8340000250128D4
:100E90000DD0012084F8340094F835700020012F23
:100EA00007D084F8340002252846BDE8F0810220EE
:100EB000FBE7022784F8357060652046FFF7C0FD28
:100EC00094F85C103F208840B0602068016841F0D1
:100ED00016010160206C20B12068016841F0080112
:100EE00001602068016841F001010160DCE7000059
:100EF00070B5044600F018F90546601C02D004489D
:100F00000078044400F010F9401BA042FAD370BDF1
:100F1000040000202DE9F84FDFF8BCA100220125D4
:100F20000AF1040B03264FF00F090BF1040E00BF6A
:100F30000B6805FA02F42340A34270D10F7907F041
:100F40000307012F01D0022F16D187684FEA42080C
:100F500006FA08FC27EA0C07D1F80CC00CFA08FCCA
:100F60004CEA070CC0F808C04768A7430C79C4F3E3
:100F7000001494403C4344600C79E443A4070AD035
:100F8000C4684FEA420C06FA0CF7BC438F6807FAB4
:100F90000CF72743C7600C7904F00304022C12D12C
:100FA000D40800EB840CDCF820405707FF0E09FA48
:100FB00007F824EA0804D1F8108008FA07F848EA8C
:100FC0000408CCF8208004684FEA420C06FA0CF7BB
:100FD000BC430F7907F0030707FA0CF727430760B4
:100FE0004C6814F4403F70D03C4C276847F480476D
:100FF0002760246822F0030704F480440094384CEE
:1010000007EB040CDCF8084897074FEA177809FA51
:1010100008F7BC43334FB84202D1002724E054E024
:10102000314FB84201D101271EE0304FB84201D103
:10103000022719E02E4FB84201D1032714E02D4FAB
:10104000B84201D104270FE02B4FB84201D1052748
:101050000AE02A4FB84201D1062705E0284FB842DE
:1010600001D1072700E0082707FA08F72743CCF843
:101070000878DAF800405746D1F804C09C435FEA8C
:10108000CC3C00D51C433C60DBF800405F46D1F807
:1010900004C09C435FEA8C3C00D51C433C60DEF8F6
:1010A00000407746D1F804C09C435FEACC2C00D5C1
:1010B0001C433C60084F0C373C68D1F804C09C438B
:1010C0005FEA8C2C00D51C433C60521C102AFFF4B4
:1010D0002FAFBDE8F88F0000003C014044380240CB
:1010E00000300140000002400004024000080240BD
:1010F000000C0240001002400014024000180240A0
:10110000001C02400069084000D00120704742697D
:1011100021EA02030A4043EA0241816170470AB1B1
:10112000816170470904FBE701488068704700004F
:101130000400002070B5040025D094F83D0000257F
:1011400020B984F83C50204600F0B8F8242084F8F8
:101150003D002068016821F00101016020680168FC
:1011600041F4004101602068016821F40041016000
:1011700000F0E6FE4D4A6168914201D84C4900E01A
:101180004C49884201D2012070BD4B492368B0FB15
:10119000F1F15E6826F03F060E435E60636893429D
:1011A00006D94FF4967359434FF47A73B1FBF3F1B8
:1011B0002368491C1E6A26F03F06314319626168A4
:1011C000914210D84900401EB0FBF1F2521CC2F30C
:1011D0000B02042A01D2042022E0B0FBF1F0401CF3
:1011E000C0F30B001CE0A268F2B301EBC10303EBF8
:1011F0000116431EB3FBF6F35B1C43F480431B054F
:1012000049D092B301EBC10202EB0111401EB0FBC9
:10121000F1F0401CC0F30B0040F4804040F400406B
:101220002168CA694CF6FF739A431043C861D4E938
:10123000071001432068026822F0C00211430160D8
:10124000D4E9030101432068826848F2FF339A43DE
:1012500011438160D4E9050108432168CA6822F07E
:10126000FF021043C86001E00EE016E0206801684C
:1012700041F0010101602564202084F83D002563D0
:1012800084F83E50002070BD01EB4106431EB3FBC5
:10129000F6F35B1CB3E70120C2E701EB4101401EFE
:1012A000B0FBF1F0401CC0F30B00B7E7A0860100D3
:1012B00080841E0000093D0040420F0010B586B03A
:1012C000044614216846FFF725F813492068884230
:1012D00020D112480021026842F002020260006838
:1012E00000F002000590C02000901220CDE901011D
:1012F000032003900420049069460948FFF70AFE82
:1013000006481030016841F400110160006800F4E3
:101310000010059006B010BD005400403038024067
:1013200000040240024881680278114481607047DD
:10133000040000200B4810B5016841F40071016001
:10134000016841F480610160016841F480710160CD
:10135000032000F08DF80F2000F006F800F03EF8B2
:10136000002010BD003C024010B5014688B00022AC
:10137000192000F05DF8192000F04CF81348002403
:10138000016841F400310160006805A900F40030F3
:101390000690684600F0AEFD00F0E2FD0C4940000A
:1013A000B0FBF1F10C480B4A491E026040F2E732F3
:1013B000C0E90324C0E9011401F0C0FB10B1012011
:1013C00008B010BD044801F0E7FBF9E744380240DB
:1013D00040420F0000440140F40700200C4882B056
:1013E000016841F480410160006800F48040009091
:1013F0000748001F016841F0805101600068002229
:1014000000F0805000900F21901E02B000F010B844
:1014100044380240002809DB00F01F0201219140FE
:101420004009800000F1E020C0F800117047000082
:10143000F0B40E4B1B680C46C3F30223C3F107053F
:10144000042D00D90425191D072901D2002300E02D
:10145000DB1E012606FA05F1491E214099409E40F7
:10146000761E16403143F0BC04F00ABF0CED00E0DC
:10147000064900F0070208684FF6FF03184040EAEB
:101480000220034A10430860704700000CED00E0A2
:101490000000FA0570470068416200207047F0B50F
:1014A0000368586A39B19C6A4FF4827600EB1444A1
:1014B00000204D1E0AE040EA024098620FE006EB71
:1014C0008007DF59401C04EB1744C0B2A842F6D392
:1014D00044EA02404FF4807202EB81015850002030
:1014E000F0BDD0F8040403F0DBBDC1EBC10200EB9A
:1014F0008202D0F80404926C03F048BDC1EBC10233
:1015000000EB8202D0F80404D2F8082203F092BD66
:10151000D0F8040403F0C6BD70B504460B0601F014
:101520000F00C0EBC00104EB81014FF001024FF04E
:10153000000503D581F83D203C3103E081F8FD51E1
:1015400001F5FE71087094F8BC03012808D084F8F6
:10155000BC23206804F064F984F8BC53002070BDFB
:10156000022070BD70B5044601F00F006268904221
:1015700001D9012070BD0B0601F00F01C1EBC101C3
:1015800004EB81014FF001024FF0000503D581F813
:101590003D203C3103E081F8FD5101F5FE718D7075
:1015A000087094F8BC03012808D084F8BC23206894
:1015B00004F030FB84F8BC53002070BD022070BDE5
:1015C00001F00F01C1EBC10100EB8100D0F8140262
:1015D00070472DE9F04104460F0601F00F00C0EB03
:1015E000C00104EB81014FF001064FF0000503D567
:1015F00081F83D603C3103E081F8FD5101F5FE7159
:1016000008708A60CB704A7802B1C880022B00D182
:101610000D7194F8BC03012809D084F8BC632068DC
:1016200004F056F8284684F8BC53BDE8F081022047
:10163000FBE770B50C4601F00F05C5EBC50100EBEB
:101640008101C1F81032C1F808220023C1F8143218
:1016500081F8FD3181F8FC51036901F5FE71012B20
:1016600000D10A612207027C006803D004F02AFB43
:10167000002070BD04F016FAFAE770B504460D4676
:1016800001F00F006168884201D9012070BD290670
:101690004FF000064FF0010207D5C0EBC00104EB8C
:1016A000810181F83D203C3107E0C5EBC50104EB29
:1016B000810181F8FD6101F5FE718A70087094F86E
:1016C000BC03012807D084F8BC23206804F0CEFABC
:1016D000280702D007E0022070BD217C04F571725A
:1016E000206804F06BFA84F8BC63002070BD70B50C
:1016F0000C4601F00F05C5EBC50100EB81010B6540
:101700008A6400234B65012381F83D3001F83C5F7A
:101710000369012B00D10A612207027C006803D013
:1017200004F0D0FA002070BD04F0BCF9FAE7000024
:101730002DE9FC5F05680446284604F0F4FB002808
:101740007ED1206804F01BFC002879D0206804F0CA
:1017500016FC800704D52168486900F00200486142
:10176000206804F00CFCC10604F57170009034D5BB
:101770002068816921F0100181612F6A07F00F0054
:10178000C0EBC00004EB8006C7F3434006F5FE76CD
:10179000022802D0062811D01AE047F6F07007425E
:1017A00016D0C7F30A1217462846F16804F0EBFB7F
:1017B000F0683844F060B069384408E008222846F0
:1017C000009904F0E0FBB069C7F30A110844B06166
:1017D0002068816941F010018161206804F0CFFB2D
:1017E00000034FF0010A4FF0080B5BD5002620687C
:1017F00004F0A4FB0746DFF8689351E0F8074DD0EA
:10180000F1B2206804F0B3FB8046C00707D005EBB7
:101810004611C1F808AB3146204601F051FF5FEA9E
:10182000087022D505EB4611C1F808BB2068016C91
:1018300000EB46100191D0F8082B494507D900E08C
:101840008BE1110403D54FF40041C0F8081B20467A
:1018500000F076FA0198484507D92069012804D19B
:1018600020680121009A04F0A9F95FEAC86004D554
:1018700005EB46111020C1F8080B5FEA886004D51B
:1018800005EB46112020C1F8080B5FEA884005D51A
:1018900005EB46104FF40051C0F8081B7F08761C7A
:1018A000002FABD1206804F06AFB40034FF0000921
:1018B0005CD5206804F03BFB0746002654E0F8079F
:1018C00050D0F1B2206804F040FB8046C00723D01E
:1018D00006F00F020AFA02F0D5F834288243C5F860
:1018E000342805EB4610C0F808A9206901280FD15B
:1018F000C6EBC60004EB8000D0E9112111448164DD
:1019000036B9206D20B920680121009A04F056F9FB
:10191000F1B22046FFF7E9FD5FEA087003D505EB59
:101920004611C1F808B95FEAC86004D505EB461155
:101930001020C1F808095FEA486004D505EB46119C
:101940004020C1F808095FEA887004D505EB46110C
:101950000220C1F808095FEA086003D53146204635
:1019600001F014FF7F08761C002FA8D1206804F036
:1019700006FB002811DAD5F8040820F00100C5F8AC
:10198000040894F8F403012829D0204600F0BCF99B
:101990002068416901F000414161206804F0EFFADC
:1019A00000050BD5D5F80808C00702D0204600F086
:1019B000EFF92068416901F400614161206804F099
:1019C000DEFAC00468D5D5F8040820F00100C5F897
:1019D00004081021206804F083FA002127E084F82D
:1019E000F49300212046FFF755FDD1E705EB4110A8
:1019F0004FF67F32C0F80829D0F8003923F40013DD
:101A0000C0F80039D0F8003943F00063C0F800395D
:101A1000C0F8082BD0F8002B22F40012C0F8002BDD
:101A2000D0F8002B42F00062C0F8002B491C60681F
:101A30008842DBD8D5F81C0840F00110C5F81C0816
:101A4000206B60B1D5F8840840F00B00C5F884081D
:101A5000D5F8440840F00B00C5F844080CE0D5F870
:101A6000141842F22B000143C5F81418D5F81008D9
:101A700040F00B00C5F81008D5F8000820F4FE600F
:101A8000C5F80008217C2068009A04F097F82068C7
:101A9000416901F480514161206804F070FA8004CA
:101AA00015D5206803F054FE206804F02FFAE0609A
:101AB00000F040FA0146227B206804F0F3FA204649
:101AC00000F00CF92068416901F40051416120687F
:101AD00004F055FA000707D5204600F019F92068F0
:101AE000416901F008014161206804F048FAC00230
:101AF00008D50021204600F035F82068416901F43E
:101B000080114161206804F03AFA800208D5002172
:101B1000204600F02BF82068416901F40011416172
:101B2000206804F02CFA400007D52046FFF7D9FCC6
:101B30002068416901F080414161206804F01FFA8A
:101B400040070AD520684568680702D52046FFF798
:101B5000DFFC2068416829434160BDE8FC9F00002C
:101B60000A30544FD0F8040403F0ECBAD0F804045F
:101B700003F0F8BA2DE9F0418AB0040005D094F8DA
:101B8000BD032668002520B108E001200AB0BDE8A9
:101B9000F08184F8BC53204600F05EF8032084F8FE
:101BA000BD03F06BC00500D42561206803F074FF0D
:101BB00004F11001282288466846FEF792FB94E85B
:101BC0000F0003F0D3FD0226C8BB0021206804F0FB
:101BD00029FA002001270EE0C0EBC00104EB8101CF
:101BE00081F83D7001F83C0FC880CD708D60CD60EC
:101BF000401CC0B24D6161688142EDD8002011E007
:101C0000C0EBC00104EB810181F8FD5181F8FC01BA
:101C100081F8FF51C1F80452C1F80852401CC0B20B
:101C2000C1F8105261688142EAD8282241466846CC
:101C3000FEF757FB94E80F0003F074FE10B184F830
:101C4000BD63A2E784F8385084F8BD73206803F0C0
:101C50005BFE00209AE7000010B586B00446142110
:101C60006846FEF757FB2068B0F1A04F2FD1194806
:101C70000021026842F001020260006800F00100E9
:101C800005904FF4C05000900220CDE901010320DF
:101C900003900A20049069460F48FFF73BF90D486E
:101CA000001D016841F0800101600A48143001689C
:101CB00041F4804101600068002200F480400590FA
:101CC00005214320FFF7B4FB4320FFF7A3FB06B039
:101CD00010BD0000303802400000024070B50446DC
:101CE000C068012570B1022801D0FEF7BEFE29466A
:101CF000D4F8040403F0A2FAD4F80404BDE8704058
:101D000003F055BA0025F2E7D0F8040403F07CBADA
:101D1000D0F8040403F082BA10B5044690F8BC036E
:101D200001280BD0012084F8BC0384F83810206807
:101D300004F0A6F9002084F8BC0310BD022010BDF9
:101D4000D0F8042400F57171104603F083BA10B581
:101D50000446006894F8BC13012906D0012184F8D8
:101D6000BC13A16A012902D008E0022010BDA169BC
:101D7000012903D0816B41F480318163206804F034
:101D800095F8206803F0B2FD002084F8BC0310BD74
:101D900010B50446D0F8040403F09EFA2068D0F889
:101DA000001E41F00101C0F8001E206A002804D086
:101DB0000248016841F00601016010BD10ED00E02D
:101DC0002DE9F0470E46050065D0DFF81481D8F8FC
:101DD0000000F7B200F00700B04207D288F80070A8
:101DE000D8F8000000F00700B04254D128683D4CFC
:101DF000810712D5400703D5206840F4E0502060E9
:101E00002878000703D5206840F4604020602068EF
:101E1000A96820F0F000084320602878C0072DD082
:101E2000304968680839012812D0022813D00328E5
:101E300011D00968890700292DDA216821F00301F2
:101E400001432160FFF770F9814641F2883A0EE0C4
:101E500009688903EFE709688901ECE7FFF764F98E
:101E6000A0EB0901514502D90320BDE8F0872068A5
:101E7000696800F00C00B0EB810FEFD1D8F80010CA
:101E8000404601F00701B14207D90770006800F031
:101E90000700B04201D00120E7E72878400705D5C8
:101EA0002068E96820F4E0500843206028780007A3
:101EB00006D52068296920F4604040EAC10020600E
:101EC00000F05EF82168084AC1F30311515CC84074
:101ED0000649086006480068FFF746FA0020C4E794
:101EE000003C024008380240E0800008100000205A
:101EF000080000200F2202600C4A136803F003035D
:101F00004360136803F0F0038360136803F4E05345
:101F1000C36012684FF4E05303EAD202026104483E
:101F2000006800F0070008607047000008380240B1
:101F3000003C02400148006870470000100000208B
:101F40000448054900680968044AC1F38221515CCC
:101F5000C84070471000002008380240F080000898
:101F60000448054900680968044AC1F34231515CDC
:101F7000C84070471000002008380240F080000878
:101F8000154810B5006810F00C02144813D0411029
:101F9000042A0FD0082A0ED10F4C241F2268236870
:101FA00002F03F025B0207D52068C0F38810A0FB57
:101FB000010106E0084610BD2168C1F38811A1FBAC
:101FC00000010023FEF75CF92168C1F30141491CBF
:101FD0004900B0FBF1F010BD083802400024F400C5
:101FE0002DE9F84F04006ED02078DFF84C93C0073D
:101FF000A9F104054AD009F104000168C1F3810187
:10200000012908D00068C0F3810002280AD1D9F85C
:102010000000400206D52868800337D56068002894
:10202000E1D033E06068B0F5803F10D0B0F5A02F6C
:10203000286810D020F480302860286820F48020A0
:1020400028606068A8B1FFF76FF806460DE02868C1
:1020500040F48030F4E740F480202860F7E700BFC8
:10206000FFF762F8801B642873D828688003F7D5CF
:102070000CE0FFF759F8064605E000BFFFF754F8FB
:10208000801B6428F0D828688003F7D42078DFF814
:10209000AC8280074FF0000A3ED5A748001D0168BA
:1020A00011F00C0F08D00068C0F3810002280BD19A
:1020B000D9F80000400207D42868800716D5E068E8
:1020C000012800D112E033E1E068B8B10120C8F87E
:1020D0000000FFF729F8064605E000BFFFF724F8E7
:1020E000801B0228C0D828688007F7D52868216996
:1020F00020F0F80040EAC10028600DE0C8F800A018
:10210000FFF712F8064604E0FFF70EF8801B0228DE
:102110001FD828688007F7D42078000722D5864F7B
:1021200087486169703771B101210160FEF7FCFFDA
:10213000064604E0FEF7F8FF801B022809D838683D
:102140008007F7D50EE0C0F800A0FEF7EDFF0646C9
:1021500005E082E0FEF7E8FF801B02287DD83868A2
:102160008007F7D42078400768D5DFF8CCB1002786
:102170000BF13C0BDBF80000C0000BD4DBF80010C7
:1021800041F08051CBF80010DBF80000012700F08F
:10219000805000906B4E3068C00510D4306840F419
:1021A00080703060FEF7C0FF009005E0FEF7BCFFD6
:1021B0000099401A022850D83068C005F6D55E4E06
:1021C000A0686C3601280FD00528306810D020F0A8
:1021D00001003060306820F004003060A068B8B1C1
:1021E000FEF7A2FF00900FE0306840F00100F4E736
:1021F00040F004003060F7E7FEF796FF0099411ABF
:1022000041F28830814266D830688007F4D50EE00C
:10221000FEF78AFF009007E0FEF786FF0099411A5B
:1022200041F28830814256D830688007F4D42FB10B
:10223000DBF8001021F08051CBF80010A069C8B382
:102240003D49091D0968C1F3810102294AD00228CC
:10225000504607D0C8F8600000E03CE0FEF764FF9D
:1022600004463BE04746C8F86000FEF75DFF0646BF
:1022700005E000BFFEF758FF801B02282BD8286816
:102280008001F7D4D4E907010843A16A2E4A49081E
:1022900002EB0141626A41EA8211084394F82C1072
:1022A00040EA0161C9F8001001203866FEF73CFFE2
:1022B000044606E03EE000BFFEF736FF001B0228A2
:1022C00009D828688001F7D534E000BFFEF72CFF5D
:1022D000001B022802D90320BDE8F88F286880017E
:1022E000F4D427E00128F7D0D9F80000E26900F41F
:1022F000800191421CD1226A00F03F01914217D126
:1023000047F6C071626A0140B1EB821F10D1A26A28
:102310004FF0FF3300F4403103EB5202B1EB024FB8
:1023200006D194F82C1000F07060B0EB016F01D072
:102330000120D1E70020CFE70438024000004742E7
:10234000800E4742007000400000FFFF2DE9FE4371
:102350000446002603200D4684F83400606C0328F0
:102360005ED0B5F5805F5BD04FF4006700204FF082
:102370008068BD421FD181460090019000212068F5
:1023800001F07CFA800113D46946204601F014FE66
:1023900007000DD10198400334D5B4F85000010472
:1023A000206801F09BFA070002D10221206823E097
:1023B000A06B384328E01DB1A06B40F0006023E023
:1023C0008146009001900021206801F057FA8001B9
:1023D000EED46946204601F0EFFD0700E8D10198F0
:1023E000C0030FD5B4F850000104206801F076FA5C
:1023F0000700DDD10021206801F0BDFA0700D7D128
:102400004F46D5E74746D3E7A063A06B144F4FF084
:10241000010848B12068876384F8348001260EE003
:10242000A06B40F08050EFE7211DD4E9050C0EC9E8
:10243000CDE90050CDF808C0206801F022FA4FF431
:102440000071206801F07EFA28B121688F63A16BCA
:102450000143A163012684F834803046BDE8FE8341
:10246000FF05400070470000F0B5426E920F0A7001
:10247000426EC2F383624A70426EC2F301628A7096
:10248000426E120CCA70B0F86420120A0A7190F8F9
:1024900064204A71826E120DCA80826EC2F30342BA
:1024A0000A72B0F86820C2F3C0324A72B0F86820ED
:1024B000C2F380328A72B0F86820C2F34032CA7226
:1024C000B0F86820C2F300320A7300264E73426CE3
:1024D0004FF40075012462B1012A3AD002684749DD
:1024E0009163816B41F08051816380F83440012019
:1024F000F0BDB0F86820C36E9205120D42EA9372E7
:102500000A61C26EC2F3C2620A75C26EC2F302628F
:102510004A75C26EC2F342528A75C26EC2F38242DB
:10252000CA75C26EC2F3C2320A760A69521C42658B
:102530000B7E03F007039B1C9A4042650B7A03F065
:102540000F0704FA07F383655B0A5A43C0E91725AE
:102550000EE090F86820C36E9206920A42EA134297
:102560000A610A69521C92024265C0E91652056668
:1025700030F86C2FC2F3803201F8192F0288C2F3B1
:10258000C6124A70027802F07F028A704268D20F47
:10259000CA704268C2F341720A714268C2F3826231
:1025A0004A714268C2F383528A714268C2F3405250
:1025B000CA710E724268C2F300424A728288C2F344
:1025C000C0328A728288C2F38032CA728288C2F3B1
:1025D00040320A738288C2F300324A738288C2F39F
:1025E00081228A738288C2F30122CA730079C0F300
:1025F000460008744C740020F0BD0000FF05400048
:10260000426C0A60826C4A60C26C8A60026DCA6069
:10261000426D0A61826D4A61C26D8A61006EC86155
:102620000020704770B50446B0F850000025010442
:10263000206801F0AAFA18B1A16B0143A16304E07C
:102640000021206801F01AF90546C5F3432070BD4A
:1026500070B504000ED094F83400002518B9257721
:10266000204600F04BF8032084F83400204600F0A8
:102670000BF808B1012070BDA5632563012084F823
:102680003400002070BD0000FEB500250446762011
:102690000095CDE9015029460B460A46206801F015
:1026A000F0F828BB134E46F8A05F206801F0FBF855
:1026B00001253560204601F063FD28B184F83450CF
:1026C000A16B0143A16313E0204601F0E2FC002866
:1026D000F4D14FF40071206801F034F9002808D0DB
:1026E000226805499163A16B0143A16384F83450CA
:1026F0000120FEBD00802542FF054000F0B587B0F7
:10270000044614216846FDF705FE1D4920688842ED
:1027100033D11C480024016841F400610160006865
:1027200000F40060059017481438016841F0040176
:102730000160016801F004010591016841F00801A0
:1027400001600068022500F0080005904FF4F85081
:10275000CDE9000502AA03260C2782E8D0006946CD
:102760000948FEF7D7FB0420CDE9000502AA694617
:1027700082E8D0000548FEF7CDFB07B0F0BD0000B1
:10278000002C01404438024000080240000C024086
:102790002DE9F04786B01F460446154639B194F836
:1027A0003400012807D0022006B0BDE8F087A06BF6
:1027B00040F0006008E00020A063E36DEA199A424F
:1027C00004D9A06B40F00070A06369E0032284F894
:1027D000342022688146D0622268D36B40F22A36C8
:1027E0003343D363236C2F4ADA63236C2E4ADA64B3
:1027F000226C1065226C9060206C0068026822F0E8
:10280000C002026020680A46266C4FEA472800F1A1
:1028100080014FEA98033046FEF732FBDFF88CA0C8
:10282000012670B12068C16B21F49571C1632168E4
:10283000C1F838A0A06B40F08040A06384F83460F9
:102840002EE01B480660606C012800D06D024FF03E
:10285000FF30CDE900089020029002200596CDE9D6
:1028600003096946206800F0F3FF012F06D9822092
:1028700020632946206801F0F9F805E081202063F3
:102880002946206801F00BF900288DD02268C2F893
:1028900038A0A16B0143A16384F83460C4F8309080
:1028A000012081E7693F0008053F0008FF0540005F
:1028B0008C85254210B5FEF725F810BD2DE9F04FA7
:1028C0005FEA010B87B01E460446114607D094F814
:1028D0003400012807D0022007B0BDE8F08FA06BBC
:1028E00040F0006008E00025A563E26D8819904281
:1028F00004D9A06B40F00070A06356E0032084F878
:1029000034002068C5622068C26B40F21A2942EA8E
:102910000902C263E26B2D48D063E26B2C48D0649D
:10292000E06B0565606C012800D049024FF090080B
:10293000012E05D9A0202063206801F071F904E080
:10294000C4F83080206801F084F9DFF888A00127FE
:1029500030B12268C2F838A0A16B0143A16321E025
:102960001D480760E16B40208860E06B00680168EB
:1029700021F0C00141F04001016022687602B308F5
:1029800059468032E06BFEF77BFA80B12068C16B5C
:1029900021EA0901C1632168C1F838A0A06B40F0A9
:1029A0008040A06384F834702563012094E74FF0E1
:1029B000FF30CDE90006CDE90285CDE9045769462F
:1029C000206800F045FF002086E70000AB3F0008CC
:1029D000053F0008FF0540008C85254270B50400C6
:1029E00009D0606A002540B125616561A56294F84F
:1029F000510040B10CE0012070BD6068B0F5827FED
:102A0000F4D0E561F2E784F85050204600F044F835
:102A1000022084F851002068016821F04001016023
:102A2000A088218900F4827001F404410843A1893F
:102A300001F400610843217C01F002010843217D7B
:102A400001F001010843218B01F400710843217F4B
:102A500001F03801084394F8201001F08001084388
:102A6000218D01F40051084321680860A069042108
:102A700001EA104094F8241001F010010843216885
:102A800048602068C16921F40061C1616565012069
:102A900084F85100002070BD70B586B00646142140
:102AA0006846FDF737FC1F493068884237D11E4819
:102AB0000025016841F480410160006800F4804015
:102AC000059019481038016841F002010160006862
:102AD000694600F0020005904FF42040009002206B
:102AE000CDE9010503200390052004900F48FEF76F
:102AF00011FA104C0E48C4E900054020C4E9020553
:102B00000001C4E90405A561E5612562204665620E
:102B1000FEF74CF908B1FDF7A8FFB464A66306B050
:102B200070BD000000380040403802400004024000
:102B300070600240900600207047704710B5040096
:102B400003D094F83D0010B107E0012010BD002033
:102B500084F83C00204600F01EF8022084F83D0076
:102B6000211D206801F09CFC012084F8460084F8B7
:102B70003E0084F83F0084F8400084F8410084F867
:102B8000420084F8430084F8440084F8450084F847
:102B90003D00002010BD704790F83D10012901D084
:102BA00001207047022180F83D100168CA6842F098
:102BB0000102CA6000681149884214D0B0F1804F08
:102BC00011D00F4988420ED00E4988420BD00E49D1
:102BD000884208D00D49884205D00D49884202D06C
:102BE0000C49884204D1816801F00701062903D00D
:102BF000016841F0010101600020704700000140C0
:102C00000004004000080040000C004000040140A7
:102C10000040014000180040704770B5044600684D
:102C200001694FF00005C943890715D4C168C9433C
:102C3000890711D4E91E016101202077206880698D
:102C40008007204602D0FFF7E7FF04E000F098F885
:102C5000204600F096F8257720680169C9434907A6
:102C600017D4C168C943490713D46FF00401016147
:102C7000022020772068806910F4407F204602D02F
:102C8000FFF7CAFF04E000F07BF8204600F079F877
:102C9000257720680169C943090716D4C168C9436B
:102CA000090712D46FF00801016104202077206821
:102CB000C0698007204602D0FFF7AEFF04E000F0B5
:102CC0005FF8204600F05DF8257720680169C94368
:102CD000C90617D4C168C943C90613D46FF01001DF
:102CE0000161082020772068C06910F4407F2046E9
:102CF00002D0FFF791FF04E000F042F8204600F018
:102D000040F8257720680169C943C90708D1C1681F
:102D1000C943C90704D1891E0161204600F032F879
:102D200020680169C943090609D4C168C943090675
:102D300005D46FF0800101612046FFF7FDFE206899
:102D40000169C943490609D4C168C943490605D484
:102D50006FF040010161204600F01EF82068016913
:102D6000C94389060BD4C168C943890607D46FF0EB
:102D7000200101612046BDE87040FFF7DEBE70BD56
:102D80007047704700680349884201D1FEF7CABA0C
:102D900070470000004401407047704710B504467A
:102DA0000068406994F83D10C0F3C010212911D18A
:102DB00080B12068143050E8001F21F0800140E805
:102DC0000012002AF5D1606B08B1FDF7C1FE204664
:102DD00001F06CFC2068406994F83E10C0F380104C
:102DE000222911D180B12068143050E8001F21F051
:102DF000400140E80012002AF5D1A06B08B1FDF7B0
:102E0000A7FE204601F02BFC002010BD70470000FB
:102E1000F8B5016804460868CA684B6910F00F0FDE
:102E20004FF000055AD003F0010602F490773743C3
:102E300065D0C10705D0D10503D5216C41F0010152
:102E40002164410705D5D90703D0216C41F0020167
:102E50002164810705D5D90703D0216C41F0040115
:102E60002164010707D502F02001314303D0216C12
:102E700041F008012164216C00293BD0800604D573
:102E8000900602D5204601F01FFC20684069216CA5
:102E9000C0F3801001F00801014320462BD001F05F
:102EA000DEFB20684069400621D52068143050E8D8
:102EB000001F21F0400140E80012002AF5D1A06B6C
:102EC000A8B16C490165A06BFDF78BFE002811D0FD
:102ED000A06B016D01B0BDE8F040084783060ED538
:102EE00093060CD52046BDE8F84001F0EDBB204626
:102EF000FFF78CFFF8BDFFF789FF2564F8BD266B4F
:102F00002023012E79D1C60677D5D60675D5086857
:102F1000486800904869400640D5A16B0868406841
:102F20000004000CEAD0A28D8242E7D9E085C8698E
:102F3000B0F5807F2DD020680C3050E8001F21F4C0
:102F4000807140E80012002AF5D12068143050E862
:102F5000001F21F0010140E80012002AF5D120688D
:102F6000143050E8001F21F0400140E80012002A10
:102F7000F5D184F83E30256320680C3050E8001FFE
:102F800021F0100140E80012002AF5D1A06BFDF7F6
:102F9000DFFDA08DE18D401A81B229E0A08DE18D89
:102FA000401A81B2E08D0028A8D00029A6D0206860
:102FB0000C3050E8002F22F4907240E80026002EDA
:102FC000F5D12068143050E8002F22F0010240E8CB
:102FD0000026002EF5D184F83E30256320680C30A1
:102FE00050E8002F22F0100240E80023002BF5D11A
:102FF0002046FFF7D2FEF8BDFFE705062BD51506E4
:1030000029D594F83D002128F5D1A068B0F5805F5E
:1030100001D12069B0B1206A411C21622168007889
:103020004860E08C401E0004000CE084E3D120687E
:10303000C16821F08001C1602068C16841F0400191
:10304000C160D8E7206A0088C0F308004860206AA1
:10305000801C2062E5E74006CDD55006CBD5CA6876
:10306000204622F04002CA6084F83D3000F0BFF8EC
:10307000C1E700006945000870B5040004D094F869
:103080003D00002510B106E0012070BD84F83C50E1
:10309000204600F023F8242084F83D002068C16811
:1030A00021F40051C160204601F06EFB20680169E7
:1030B00021F4904101612068416921F02A014161B8
:1030C0002068C16841F40051C1602564202084F863
:1030D0003D0084F83E00002070BD00002DE9F04165
:1030E00086B0064614216846FDF714F92F4930686A
:1030F000884258D12E480024016841F01001016037
:10310000006800F01000059029481438016841F06B
:10311000010101600068694600F0010005904FF46C
:10312000C06000900220CDE9010403200390072035
:1031300004902048FDF7EEFE204D1F484FF0006739
:10314000E5E8020740204FF48068A5E811011B481C
:1031500045F81449AC61EC612C626C62FDF726FE07
:1031600008B1FDF782FC7563AE63144D12486035FB
:1031700078382860C5E90174C5E903486C61AC6121
:10318000EC612C6228466C62FDF710FE08B1FDF779
:103190006CFCB563002205212520AE63FEF748F9DB
:1031A0002520FEF737F906B0BDE8F0810010014098
:1031B0004438024000000240B86402403407002056
:1031C00090F83E30202B0ED159B152B190F83C30DE
:1031D000012B08D0012380F83C300023036301F069
:1031E00059BB0120704702207047704770477047F5
:1031F000FEE700007CB501240320CDE90004002394
:1032000022464FF43E414348FDF754FC4248002516
:10321000C0F8A452C0F8A4422946AE2000F024FA17
:103220000021A02000F020FA0021552000F01CFA17
:103230000021A12000F018FA0021084600F014FA3D
:103240000021A22000F010FA0021084600F00CFA3C
:103250000021A42000F008FA0021A82000F004FAC0
:1032600000217F2000F000FA0021AB2000F0FCF9E3
:103270000021012000F0F8F90021812000F0F4F98C
:103280000021772000F0F0F90021B12000F0ECF9E6
:103290000021312000F0E8F90021B32000F0E4F92A
:1032A0000021B12000F0E0F90021B52000F0DCF9A8
:1032B0000021032000F0D8F90021B62000F0D4F955
:1032C00000210D2000F0D0F90021BC2000F0CCF945
:1032D0000021072000F0C8F90021BE2000F0C4F949
:1032E0000021072000F0C0F90021D52000F0BCF932
:1032F0000021022000F0B8F97F2300211A46084679
:10330000009500F089F9BDE87C400021AF2000F075
:10331000ABB900000004024000804042F0B5002339
:103320000A24302537261F4611E000BFB4EB107F7A
:1033300002D905EB107C01E006EB107C01F813C00C
:1033400001EB430C00015B1C8CF80170DBB2934273
:10335000ECD3F0BD154808B5016841F48001016067
:10336000016801F480010091016841F400110160DD
:103370000068002200F40010009005210F20FEF7E5
:1033800057F80F20FEF746F8002205213A20FEF7F5
:103390004FF83A20FEF73EF8002205214620FEF7BE
:1033A00047F8BDE808404620FEF734B83038024000
:1033B00010B504490448FDF75AFB0249491E08703C
:1033C00010BD00001D000020F880000800B587B087
:1033D0001C2206496846FCF784FF0021684603F07A
:1033E000CDFC0349086007B000BD0000BC800008A8
:1033F000000000202DE9F04186B014216846FCF75A
:1034000089FF33480024016841F010010160016820
:1034100001F010010591016841F0040101600168AB
:1034200001F004010591016841F08001016001682B
:1034300001F080010591016841F00201016001681D
:1034400001F002010591016841F00101016001688C
:1034500001F001010591016841F008010160006877
:103460001C4F00F008000590002224213846FDF78B
:1034700056FEDFF864804FF4F05600223146404695
:10348000FDF74DFE242000900125CDE90154694649
:1034900038460394FDF73EFD1820CDE90004694647
:1034A00038460294FDF736FD6803CDE9000402209A
:1034B000029069460948FDF72DFD0096CDE90154BB
:1034C000694640460394FDF725FD06B0BDE8F0814E
:1034D0003038024000100240000402400008024060
:1034E0000D4810B50B4901600C49416000214FF4B3
:1034F00080428160C0E9031241618161C161016262
:10350000FDF718FE002803D0BDE81040FDF7ADBA66
:1035100010BD00000054004060050020A08601009E
:10352000064805490160002141608160C160016178
:103530004161082181617047002C0140B4050020E1
:10354000104810B50E4901604FF4827141600021AE
:1035500002228160C0E903120122426152028261AB
:103560001022C0E90721416281620A21C162FFF78E
:1035700035FA002803D0BDE81040FDF776BA10BD3B
:1035800000380040380600200C4810B50A49016098
:103590004FF4E1314160002181600C22C160C0E93B
:1035A00004128161C161FFF767FD002803D0BDE807
:1035B0001040FDF75ABA10BD00100140F00600207F
:1035C00010B500220F49104801F0BBFC08B1FDF70F
:1035D0004CFA0E490C4801F0A7FE08B1FDF745FA78
:1035E0000B49094801F0C7FA08B1FDF73EFA064851
:1035F00001F014FF002803D0BDE81040FDF735BAF4
:1036000010BD00009000002058450020D00100208F
:10361000E0000020FEE7FEE72DE9F04347085508EB
:103620008846681EC1B21E4600243846DDF81C904C
:10363000FDF7A4F9701EC1B2404600F0F8F8EF1B88
:10364000A6EB08060BE0002505E00121484600F046
:103650000BF86D1CEDB2AF42F7DC641CE4B2A6427D
:10366000F1DCBDE8F083000030B50023104A0124EE
:1036700011B1C2F8A84201E0C2F8A832C2F8AC32D7
:103680005FF00001C2F8B432050602D5C2F8BC42B0
:1036900001E0C2F8BC32C2F8B4424006491C000E38
:1036A000C9B20829EED3C2F8AC32C2F8A84230BD84
:1036B000008040420148FEF73BB80000485C002013
:1036C0002DE9F04103680D4604461E6C03EB4511DD
:1036D000D1F8080BD4F810E04FF400474FF0200C5D
:1036E00004F57172BEF1010F09D0DFF898E076455C
:1036F00039D1020432D500BFC1F8087B3FE0224B2C
:103700005FEA007E04D59E4239D90004F4D436E045
:103710005FEA806E02D5C1F808CB30E010F0280FC8
:103720002DD19E4201D90004E6D4C5EBC50004EBBF
:103730008000D1F8101BD0F80432C1F31201591ADD
:10374000C0F81412D0F808121944C0F8081295B93C
:10375000D4F8100278B9012120680AE080060AD561
:10376000C1F808CB07E035B9D4F8100218B9002128
:10377000184602F023FAE9B22046FDF7BFFE00200A
:10378000BDE8F0810A31544F0A30544F2DE9F84F0B
:103790000E46C1EBC60100EB810481460568D4E901
:1037A00014103C34884202D90120BDE8F88F081A71
:1037B000A168814200D20846C01C870805EB461864
:1037C0001BE000BFA0EB010AA068504500D2824672
:1037D0000AF10300870899F8100000901FFA8AF395
:1037E000F2B22846E16802F0D1FCE16801EB0A0080
:1037F000E060A16901EB0A00A061D8F8180980B265
:10380000B84205D3D4E90501814201D20028D9D1BB
:10381000D4E90501884208D806F00F01012088404C
:10382000D5F834188143C5F834180020BDE730B509
:103830000D46044600217520FFF716FF00212046A3
:10384000FFF712FF2846BDE830400021FFF70CBF0C
:103850000A6842624A688262D1E902231A43D1E9C6
:1038600004310B43C16A1A4321F0F7011143C162CD
:1038700000207047006800F003007047084440696A
:10388000704770B50DF1100C11439CE87000234394
:10389000194329434268314347F6FF639A430A4379
:1038A0004260002070BD10B5032101600220FDF7C9
:1038B0001FFB002010BDD0F8800070470A688260AE
:1038C000D1E901231A43D1E903310B43C1681A43FB
:1038D0006FF30B011143C1600020704710B586B033
:1038E00004463720CDE900104020029000200390CC
:1038F0004FF48060049069462046FFF7DFFF41F2F5
:1039000088323721204600F0BDF906B010BD000016
:1039100010B504460A4886B001432920CDE90010BD
:1039200040200290002003904FF48060049069468C
:103930002046FFF7C3FF204600F05CFA06B010BD3A
:103940000000108010B586B004461020CDE90010AC
:1039500040200290002003904FF48060049069465C
:103960002046FFF7ABFF41F288321021204600F0DD
:1039700089F906B010BD10B586B004460620CDE921
:10398000001040200290002003904FF480600490CB
:1039900069462046FFF792FF41F288320621204611
:1039A00000F070F906B010BD30B585B000240546B2
:1039B000009401944FF480600294CDE9034069467D
:1039C0002846FFF77BFF0B484FF4FA510068B0FB25
:1039D000F1F041F288314843401E03D24FF00040DD
:1039E00005B030BD696B0906F6D5C520A863204631
:1039F000F6E700001000002070B585B004464FF4D3
:103A0000D570009001A908204025002681E86100BA
:103A1000C001049069462046FFF750FF12484FF45A
:103A2000FA510068B0FBF1F041F288314843401E82
:103A300003D24FF0004005B070BD616B11F0450F2F
:103A4000F5D00905F3D4606B400701D5042003E0ED
:103A5000606BC00702D00120A063ECE7606B4006FA
:103A600000D5A5633046E6E71000002010B586B00B
:103A700004461220CDE9001040200290002003905F
:103A80004FF48060049069462046FFF717FF41F22B
:103A900088321221204600F0F5F806B010BD10B5AE
:103AA00086B004461120CDE900104020029000208D
:103AB00003904FF48060049069462046FFF7FEFEB5
:103AC00041F288321121204600F0DCF806B010BD2A
:103AD00010B586B004460720CDE9002040200290B2
:103AE000002003904FF48060049069462046FFF761
:103AF000E5FE41F288320721204600F0C3F806B007
:103B000010BD10B586B0044600210220CDE900109A
:103B1000C020CDE902014FF4806004906946204640
:103B2000FFF7CCFE204600F03DF906B010BD10B501
:103B300086B004460920CDE90010C0200290002084
:103B400003904FF48060049069462046FFF7B6FE6C
:103B5000204600F027F906B010BD10B586B0044627
:103B600000213320CDE900104020CDE90201000101
:103B7000049069462046FFF7A1FE41F288323321C6
:103B8000204600F07FF806B010BD10B586B00446A0
:103B90000D20CDE9001040200290002003904FF44A
:103BA0008060049069462046FFF788FE41F2883223
:103BB0000D21204600F066F806B010BD30B585B086
:103BC0000C46054600210320CDE900104020CDE938
:103BD00002010001049069462846FFF76FFE224665
:103BE0000321284600F028F905B030BD10B586B095
:103BF000044600210C20CDE900104020CDE902014F
:103C00000001049069462046FFF758FE034A0C2144
:103C1000204600F037F806B010BD000000E1F505C1
:103C200010B586B004461920CDE90010402002905E
:103C3000002003904FF48060049069462046FFF70F
:103C40003DFE41F288321921204600F01BF806B0F3
:103C500010BD10B586B004461820CDE900104020F4
:103C60000290002003904FF4806004906946204643
:103C7000FFF724FE41F288321821204600F002F8B6
:103C800006B010BD454B10B51B684FF4FA54B3FB9A
:103C9000F4F353435B1E02D24FF0004010BD426B61
:103CA00012F0450FF6D01205F4D4426B520703D53B
:103CB00004218163084610BD426BD20702D0012166
:103CC000816305E0C52282630269D2B28A4201D0D3
:103CD000012010BD0021FFF7D1FD3149084201D17B
:103CE000002010BD002802DA4FF0007010BD410026
:103CF00001D5402010BD810001D5802010BDC1003C
:103D000002D54FF4807010BD010102D54FF4007050
:103D100010BD410102D54FF4806010BDC10102D534
:103D20004FF4006010BD010202D54FF4805010BD69
:103D3000410202D54FF4005010BD810202D54FF46C
:103D4000804010BDC10202D54FF4004010BD4103B8
:103D500002D54FF4003010BD810302D54FF480200E
:103D600010BDC10302D54FF4002010BD010402D5DF
:103D70004FF4801010BD410402D54FF4001010BD67
:103D8000810402D54FF4800010BD000702D54FF426
:103D9000000010BD4FF4803010BD00001000002066
:103DA00008E0FFFD12494FF4FA520968B1FBF2F145
:103DB00041F288325143491E02D24FF00040704711
:103DC000426B12F0450FF6D01205F4D4416B49074F
:103DD00003D50421816308467047416BC90703D0AE
:103DE0000121816308467047C52181630020704727
:103DF000100000200F494FF4FA520968B1FBF2F1AC
:103E000041F288325143491E02D24FF000407047C0
:103E1000426B12F0450FF6D01205F4D4416B4907FE
:103E200003D50421816308467047C52181630020C2
:103E3000704700001000002030B5204B4FF4FA54BA
:103E40001B68B3FBF4F341F2883463435B1E02D278
:103E50004FF0004030BD446B14F0450FF6D0240500
:103E6000F4D4436B5B0703D504218163084630BD5E
:103E7000436BDB0702D00121816303E00369DBB2FE
:103E80008B4201D0012030BDC52181630021FFF7A5
:103E9000F5FC10F4604F04D0410406D54FF40050F7
:103EA00030BD000C1080002030BD000402D54FF45E
:103EB000805030BD4FF4803030BD00001000002035
:103EC00010B5064C01202070FCF7DCFC18B92078F6
:103ED00020F001002070207810BD000014000020A8
:103EE00070B5054602F0B3FE044603E0FCF7CAFCD9
:103EF000002806D002F0ABFE001BA842F6D34FF01C
:103F0000FF3070BD10B5846BFCF77DFE022828D011
:103F1000206C416DE06B406D012901D001281DD15D
:103F20002168104888632068C16B21F49D71C163CA
:103F3000A06B40F08040A0632046FEF773FB06288C
:103F400001D0052805D12068FFF750FEA16B08437A
:103F5000A063012084F83400002020632046FEF78F
:103F600081FA10BDFF05400010B5846B206B8228DC
:103F700009D12068FFF73AFE28B1A16B0143A16384
:103F80002046FEF76FFA2068C16A21F00801C1627D
:103F9000216840F23A508863012084F83400002000
:103FA00020632046FEF786FC10BD806B0068C16B65
:103FB00041F48071C16370472DE9F04788B00D4628
:103FC0000446FDF7B1F80026824600960196374672
:103FD00008212068FFF7B6FC002829D1B4F850006A
:103FE00001042068FFF77AFC002821D1401E4FF021
:103FF0000808CDE9020830204FF00209CDE9040994
:104000000120CDE9067002A92068FFF721FC206895
:10401000FFF7A3FD00280BD16F462068416B11F01C
:104020002A0F08D0416B09071AD5C0F8388008203C
:1040300008B0BDE8F087416B890205D5FFF73BFC6E
:1040400047F82600761C02E0416B8904EAD5FDF7AB
:104050006BF8A0EB0A00401CDFD14FF00040E7E70F
:10406000416B890703D5C0F838900220E0E7416B27
:10407000890603D5202181630846D9E740F23A51E9
:104080008163019800BA2860009800BA6860002037
:10409000CEE710B590B004460120ADF83800206896
:1040A000FFF7E8FB002854D0606C032842D020685A
:1040B000FFF727FD00284AD100212068FFF7DEFB2B
:1040C000606704212068FFF7D9FBA06708212068FA
:1040D000FFF7D4FBE0670C212068FFF7CFFBC4F8A3
:1040E0008000606C032825D00EA92068FFF766FDCC
:1040F00000282CD1606C03281CD0BDF83800206546
:1041000001042068FFF713FD002820D1002120685A
:10411000FFF7B4FB606604212068FFF7AFFBA066E1
:1041200008212068FFF7AAFBE0660C212068FFF752
:10413000A5FB206704212068FFF7A0FB000DE064C9
:1041400003A92046FEF790F930B14FF0805010B02F
:1041500010BD4FF08060FAE7B4F85000002302046D
:104160002068FFF7B5FC0028F1D104F1100007C862
:104170008DE8070094E80F00FFF783FB0020E6E7D7
:104180002DE9F84F0026044600963546B0460068F3
:10419000FFF70AFC002827D12068FFF72DFC4FF01D
:1041A000805B4FF001094FF6FF7748B1A6642068A5
:1041B000FFF7FAFB002817D1A06C012802D020E0FD
:1041C000C4F8489000212068FFF788FB58B918E030
:1041D00000212068FFF782FB002805D151462068A6
:1041E000FFF796FB10B15846BDE8F88F0021206814
:1041F000FFF744FB05464FEAD0780098401C00903A
:1042000002E0DFF82CA00098B84202D2B8F1000F0B
:10421000DED00098B84202D34FF08070E4E7680027
:1042200002D5C4F8449000E066640020DCE700009A
:10423000000010C17FB5124C05460120207002F02D
:10424000F8FCC8B1FCF72AFB18B92846FFF738FE7E
:104250002070207801280FD0606868B9094B0FCB17
:104260008DE80F000021684602F0FDFC606018B97F
:10427000207840F001002070207804B070BD00006C
:10428000140000200C81000810B5124888B01446B4
:104290000078C00702D0032008B010BDC1B10129C9
:1042A00005D0022908D003290CD00420F4E7684681
:1042B000FCF7E2FA06980AE06846FCF7DDFA079890
:1042C000208005E06846FCF7D7FA0798400A20608E
:1042D0000020E1E7140000202DE9FE4347F23054AE
:1042E0001E461746884601252046FFF7F9FD00289F
:1042F0001EDB324639464046FCF7F6FAC0B90F4895
:1043000022464168684602F0C1FCDDE90010102930
:104310000ED101280CD102F09AFC064603E000BF42
:10432000FCF7B0FA38B102F092FC801BA042F7D340
:104330002846BDE8FE830025FAE7000014000020AF
:10434000FFF7BEBD2DE9FE4347F230541D46174628
:10435000884601262046FFF7C3FD00281EDB2A46BB
:1043600039464046FCF7D6FAC0B90F4822464168A4
:10437000684602F08BFCDDE9001010290ED10228FE
:104380000CD102F064FC054603E000BFFCF77AFAAA
:1043900038B102F05CFC401BA042F7D33046BDE8C8
:1043A000FE830026FAE70000140000200178407820
:1043B00041EA00207047FFF703F9012002F032FCC8
:1043C000FBE7000010B5502080F31188BFF34F8F3A
:1043D000BFF36F8F03F024FD18B104494FF08050F4
:1043E0000860002080F3118810BD000004ED00E09B
:1043F00030B593B030216846FBF78CFF14210CA830
:10440000FBF788FF1D480025016841F080510160DD
:10441000006800F0805011901948016841F4804113
:1044200001600068022400F4804011900120009097
:10443000000401908001CDE9064004200890A820E6
:10444000CDE9090407200B906846FDF7C9FD08B1C6
:1044500072B6FEE70CA90F2081E831004FF4A0509E
:104460000F904FF48050109005210CA8FDF7A8FC88
:10447000002801D072B6FEE713B030BD40380240CC
:10448000007000400248016841F47001016070470B
:1044900088ED00E00148FEF7C0BB0000F4070020F3
:1044A000F0B50268254C264D264E274F274B4FF07E
:1044B000804CA04209D0604507D0A84205D0B04248
:1044C00003D0B84201D0984204D122F0700E4A685D
:1044D00042EA0E02A0421BD0604519D0A84217D074
:1044E000B04215D0B84213D0984211D0184DA8420E
:1044F0000ED0184DA8420BD0174DA84208D0174D2A
:10450000A84205D0164DA84202D0164DA84203D1AC
:1045100022F44075CA682A434D6922F080022A437A
:1045200002608A68C2620A688262A04201D0984230
:1045300001D10969016301214161F0BD0000014021
:104540000004004000080040000C0040000401404E
:104550000040014000440140004801400018004074
:10456000001C00400020004010B5806B0021C18578
:10457000C184FEF74BFC10BD70B5846B20684069A8
:1045800094F83D10C0F3C0100025212904D118B1C2
:10459000E584204600F08AF82068406994F83E10CF
:1045A000C0F38010222904D118B1E585204600F01F
:1045B00056F8206C40F0100020642046FEF726FCE0
:1045C00070BD10B50146806B09680968C9052FD414
:1045D0000021C18501680C3151E8002F22F480725E
:1045E00041E80023002BF5D10168143151E8002F78
:1045F00022F0010241E80023002BF5D101681431BB
:1046000051E8002F22F0400241E80023002BF5D1B1
:10461000202180F83E10016B012909D101680C317D
:1046200051E8002F22F0100241E80023002BF5D1C1
:10463000016B012902D0FEF7D8FD10BD818DFEF778
:10464000ACFB10BD10B5806B016B012902D0FEF7E9
:10465000CDFD10BD818D4908FEF79FFB10BD01689F
:104660000C3151E8002F22F4907241E80023002B16
:10467000F5D10168143151E8002F22F0010241E820
:104680000023002BF5D1016B012909D101680C3100
:1046900051E8002F22F0100241E80023002BF5D151
:1046A000202180F83E1000210163704701680C3121
:1046B00051E8002F22F0C00241E80023002BF5D181
:1046C000202180F83D10704708B590F83E1022294F
:1046D00001D0022008BD82684FF480539A4201D174
:1046E000016921B1816A9A421BD04AB10AE002688D
:1046F000816A5268C2F308020A80816A891C08E054
:10470000026972B10268526802F07F020A70816A1F
:10471000491C8162C18D491E0904090CC18503D061
:1047200019E002685268F1E70168CA6822F02002C5
:10473000CA600168CA6822F48072CA6001684A6966
:1047400022F001024A61202180F83E10016B01290C
:1047500003D0FEF74AFD002008BD00210163016877
:104760000C3151E8002F22F0100241E80023002B09
:10477000F5D101680A68D20602D50A684968009135
:10478000818DFEF70AFBE6E770B504460068016913
:10479000E26821F44051114301612169A068E26996
:1047A00008436169114308432168CA6849F20C63F0
:1047B0009A430243CA6020684169A26921F44071AA
:1047C0001143416131492068884202D03049884212
:1047D00002D1FDF7C5FB01E0FDF7B2FBE269002362
:1047E000192164253226B2F5004F626828D0A0FB5B
:1047F0000101930F9200FBF743FD0146B0FBF5F07A
:104800006FF01802504301EB800006EB0010B0FB84
:10481000F5F000F0F002B1FBF5F002EB0012B1FB95
:10482000F5F06FF01803584301EB800006EB001021
:10483000B0FBF5F000F00F0021681044886070BDF7
:10484000A0FB010192185B41FBF71AFD0146B0FB8A
:10485000F5F00201B1FBF5F06FF01803584301EBDE
:10486000800006EBC000B0FBF5F000F0F80002EBB2
:104870004002B1FBF5F0584301EB800006EBC000AD
:10488000B0FBF5F000F00700D6E700000010014093
:104890000014014038B58162828500251346044624
:1048A0000564222084F83E00A26B1B48D063A26BF3
:1048B0001A481064A26B1A48D064A06B0A460565BA
:1048C0002168A06B091DFCF7DBFA206801684068CD
:1048D000009084F83C5020680C3050E8001F41F4F0
:1048E000807140E80012002AF5D12068143050E8A9
:1048F000001F41F0010140E80012002AF5D12068B4
:10490000143050E8001F41F0400140E80012002A36
:10491000F5D1002038BD0000C34500084546000819
:104920007945000810B50448FEF772FABDE810405A
:10493000014801F03FBC0000F006002010B50A4815
:10494000FEF72CFA094800684068094801780129F7
:1049500003D10021017001214170BDE81040FF2208
:1049600004490148FEF72CBCF00600209407002003
:10497000260000200C0200202DE9F0410C46D0F862
:10498000C422D0F8BC12F9B104EB840300EB830518
:104990000026AB694BB1C4EBC40702EB8702526C33
:1049A000B3FBF2F702FB173282B1C1F81462D0F800
:1049B000C00203692BB1D1F80802224601F5047147
:1049C00098470020BDE8F0810320FBE700231A464A
:1049D0002146AE6100F089FCF3E770B5D0F8BC4227
:1049E00005466CB100F06AFBC4F80C02D5F8C012A1
:1049F000D4F80402CA6804F503719047002070BD22
:104A0000032070BD70B50446812100F0B6FA002580
:104A100025870121204600F0B0FAA4F878518221C0
:104A2000204600F0AAFAA4F84C50A4F84E50D4F84E
:104A3000BC0248B1D4F8C00204F52F744068804726
:104A4000206800F040FE2560002070BD10B5D0F851
:104A5000BC4284B1D0F8C01259B194F80002FF28CA
:104A600007D08B6894F8012221469847FF2084F8EC
:104A70000002002010BD032010BD00000A210180AB
:104A800000487047F800002043210180004870472B
:104A900048010020432101800048704704010020A4
:104AA00043210180004870478C0100202DE9F04728
:104AB00004464FF4077000F007FE05004FF00007B2
:104AC00035D0C4F8BC52207C4FF010084FF4007968
:104AD000012680B3402302228121204600F052FBB0
:104AE0002687402302220121204600F04BFBA4F838
:104AF0007861A4F84E80082303228221204600F02A
:104B000041FBA4F84C60D4F8C00200688047C5F8A7
:104B10001472C5F81872207CD5F80422A8B140237D
:104B20000121204600F03AFB0020BDE8F08702207A
:104B3000C4F8BC72F9E7FFE74B4602228121204608
:104B400000F020FB26874B46CCE74B46E8E710B544
:104B5000D0F8BC1251B1027C002AD1F8042207D04F
:104B60004023012100F01AFB002010BD032010BDDE
:104B70004FF40073F5E719B1C0F8C0120020704778
:104B800003207047D0F8BC0218B1C0F8041200200E
:104B9000704703207047D0F8BC0228B1C0F810223B
:104BA000C0F8081200207047032070472DE9FC412F
:104BB0000646D0F8BC7200200C468DF80000ADF817
:104BC0000400054637B1207810F0600128D0202974
:104BD00044D102E00320BDE8FC81E288C2B10006B6
:104BE00060780AD5D6F8C0128B6839469847E288B3
:104BF000072A00D90722394628E087F80002A07961
:104C000087F80102E2883946304600F051F82AE080
:104C1000D6F8C012607800228B682146984722E0BF
:104C2000607830B101281ED00A2809D00B2815D190
:104C300010E096F89C02032810D1022201A905E099
:104C400096F89C02032809D101226946304600F0FB
:104C500049F808E096F89C02032804D02146304623
:104C600000F01BF803252846B5E710B5D0F8B822A8
:104C70000AB152689047002010BD134610B50A468D
:104C8000002100F08BFA002010BD134610B50A4633
:104C9000002100F02AFB002010BD10B50446802141
:104CA00000F008FB2046BDE81040002100F002BBE8
:104CB00010B50323C0F89432C0F858211346C0F849
:104CC0005C210A46002100F069FA002010BD10B5F1
:104CD0000521C0F8941200231A46194600F05EFA26
:104CE000002010BD10B50223C0F894328261134633
:104CF000C2610A46002100F0F8FA002010BD10B58C
:104D00000421C0F8941200231A46194600F0EDFA67
:104D1000002010BD10B50A46024903A000F0E1F8DA
:104D2000004810BD2848002043444320436F6E666E
:104D3000696700001220088000487047B00000201A
:104D400010B50A46024903A000F0CBF8004810BD98
:104D50002848002043444320496E746572666163AD
:104D6000650000000420088000487047AC00002067
:104D700010B50A46024903A000F0B3F8004810BD80
:104D80002848002053544D6963726F656C656374E5
:104D9000726F6E696373000010B50A46024903A082
:104DA00000F09FF8004810BD2848002053544D33B0
:104DB00032205669727475616C20436F6D506F724A
:104DC0007400000010B51A2008800A480168001D10
:104DD0000468001D0068081809D008220649FEF77B
:104DE0009DFA0549042210312046FEF797FA024841
:104DF000801E10BD107AFF1FC6000020F8B50446C3
:104E00000020ADF8000048880D46010A08295FD24D
:104E1000DFE801F05E0409175E5E3C45D4F8B41289
:104E2000207C0A6819E0207C02260028D4F8B80209
:104E300005D0C16A684688470146467039E0816AF4
:104E4000F8E7C0B2062843D2DFE800F0030A1014E6
:104E5000181CD4F8B402426805E0694690471CE08B
:104E6000D4F8B402826892B3207CF6E7D4F8B40296
:104E7000C268F8E7D4F8B4020269F4E7D4F8B402DF
:104E80004269F0E7D4F8B4028269ECE7207CF0B91B
:104E9000D4F8B802416B68468847014609E0207C97
:104EA000A8B9D4F8B802016B6846884701460720C4
:104EB0004870EA888AB1BDF8000040B1824200D94A
:104EC0000246ADF800202046FFF70CFFF8BDFFE7D3
:104ED00029462046FFF7E1FEF8E72046FFF70FFFDF
:104EE000F4E770B5002300281ED00025044602E038
:104EF0006D1CEDB2641C2678002EF9D1022404EB5F
:104F0000450414801278CA545B1C0322CA5400243E
:104F10005B1C06E0CA545B1CDAB28C54521CD3B240
:104F2000401C0278002AF5D170BD01004FF000004E
:104F300004D0012901D0022901D0032070470120AB
:104F4000704778B10023C0F8B832C0F8C032C0F85A
:104F5000CC3209B1C0F8B412012180F89C12027061
:104F600000F0B0B80320704710B5D0F8C402FCF7C9
:104F7000F9FABDE81040FFF7D8BF10B5D0F8C40269
:104F8000FCF7CAFABDE81040FFF7CFBF70B5164670
:104F9000044621B194F89C02032841D048E0D4F89B
:104FA000941204F114000025022932D1D0E9023113
:104FB0008B4206D95A1A826031462046FFF765FEB9
:104FC0000FE0994214D14068884211D3D4F8981266
:104FD00088420DD2002211462046FFF756FEC4F843
:104FE000985200231A461946204600F0D7F810E0E0
:104FF00094F89C02032805D1D4F8B802C16809B11D
:10500000204688478021204600F054F92046FFF7CB
:105010005EFE94F8A00201280AD184F8A05207E0AD
:10502000D4F8B80242691AB120469047002800D14E
:10503000002070BD10B51346044621B194F89C02BF
:10504000032823D02AE0D4F8941204F5AA70032987
:1050500024D1D0E9021291420AD98A1A8260C0682A
:10506000824200D3024619462046FFF706FE15E0AD
:1050700094F89C02032805D1D4F8B802016909B15B
:10508000204688472046FFF73AFE07E0D4F8B802EA
:1050900082691AB120469047002800D1002010BD37
:1050A0000020704710B5012180F89C12D0F8B8227A
:1050B00012B1526801799047002010BDD0F8C402A7
:1050C000FCF77EBA10B5017839BB15490222C1F848
:1050D0000404C0F8C4124FF0A040086004204860E7
:1050E0000020C1E90320C1E9062008624862C862C5
:1050F00008630846FCF73EFD08B1FBF7B6FC8021CB
:105100000748FCF7C8F9402200210548FCF7C7F919
:10511000802201210248FCF7C2F9002010BD0000E6
:10512000485C00200A0601F07F01D0F8C402C1EB00
:10513000C10100EB810002D590F83E00704790F865
:10514000FE01704710B5D0F8B82222B190F89C3219
:10515000032B02D004E0032010BD126A02B1904775
:10516000002010BD10B5D0F8B82222B190F89C32C2
:10517000032B02D004E0032010BD526A02B1904715
:10518000002010BD10B51C461346D0F8C4022246BC
:10519000FCF71FFABDE81040FFF7C7BE10B5D0F806
:1051A000C402FCF746FABDE81040FFF7BEBE70B57A
:1051B0000125044680F89C520020C4F894026060E7
:1051C000C4F8A402D4F8B802E0B1D4F8BC1221B1FA
:1051D000426812B100212046904700224023114628
:1051E0002046FFF7CFFF4026A4F864513346002243
:1051F00080212046C4F86061FFF7C4FFA584002029
:10520000266270BD032070BD90F89C12042903D162
:1052100090F89D1280F89C120020704710B5D0F8CD
:10522000B81221B190F89C22032A02D004E0032096
:1052300010BDC96901B18847002010BD017400206C
:10524000704710B5D0F8C402FCF766FDBDE8104009
:10525000FFF76BBE70B5044600F2AA20054600F0C9
:105260004DF80120C4F89402B4F8B002C4F89802D2
:1052700094F8AA0210F01F010AD001290ED00229C9
:1052800012D000F080012046BDE8704000F012B856
:1052900029462046BDE8704000F0C2B829462046A5
:1052A000BDE8704000F0E6B929462046BDE87040F0
:1052B00000F040B910B5D0F8C402FCF7DEF9BDE843
:1052C0001040FFF732BE10B5D0F8C402FCF73FFD26
:1052D000BDE81040FFF729BE90F89C1280F89D129F
:1052E000042180F89C120020704710B5D0F8C40249
:1052F000FCF7FDF9BDE81040FFF717BE70B5054695
:1053000011F8010B2870087868704C1C2046FFF7D4
:105310004DF86880A41C2046FFF748F8A880A01C20
:10532000FFF744F8E88070BD38B504460020ADF8BA
:10533000000049B1C4F8B812C96A19B16846884773
:10534000C4F8CC02002038BD032038BD024603203B
:10535000D2F8B832002B02D01B68104618477047AD
:105360002DE9F0410F462C4E897800250446317016
:10537000012906D939462046FFF78FFC0320BDE8F6
:10538000F08194F89C0202280CD003281DD03946E5
:105390002046FFF782FC31782046FFF766FC0325A4
:1053A0002846ECE799B320466160FFF7CFFF050080
:1053B00004D039462046FFF770FCF1E72046FFF79E
:1053C0009EFC032084F89C02EAE74FF00208C1B17A
:1053D000606888421BD0C1B22046FFF746FC317896
:1053E00020466160FFF7B2FF050010D03946204625
:1053F000FFF753FC21792046FFF737FC84F89C82A5
:10540000CEE784F89C8220466160FFF72EFC2046A0
:10541000FFF775FCC4E70000F4000020FFF753BF5E
:105420002DE9F0410A78002512F0600208D0202A08
:1054300001D0402A71D1D0F8B8229268904731E06B
:105440004B78002201260A2B67D2DFE803F0415E89
:105450006658660805662D29FFF7D0FC5FE0044614
:105460008888D8B9C888C8B94888802816D200F07A
:105470007F0794F89C02032810D084F89E72394666
:105480002046FFF7DEFE2046FFF739FC1FB1022061
:1054900084F89C0243E084F89C6240E020463CE0B3
:1054A000FFF75EFF05463AE0CB88012B35D190F837
:1054B0009C32012B04D0022B02D0032B2DD104E00F
:1054C0008260012200F1080116E00122011D13E0B3
:1054D00090F89C22012A03D0022A01D0032A1CD171
:1054E000CA88022A19D1C660D0F8A41209B10321D2
:1054F000C160022200F10C01FFF7F4FB0FE04988C4
:1055000001290CD1C0F8A46211E090F89C32012B63
:1055100008D0022B06D0032B04D0FFF7BEFB284691
:10552000BDE8F08149880129F9D1C0F8A422FFF72C
:10553000E6FBF4E72DE9F0410D4604462878002605
:10554000097910F060000BD0202801D040286DD1DF
:10555000D4F8B8022946826820469047064686E07D
:105560006878A8B3012822D003287CD194F89C0243
:10557000022802D0032876D10BE0002973D08029BD
:1055800071D02046FFF796FE80212046FFF792FE5D
:105590006DE0688838B931B1802904D0E88810B945
:1055A0002046FFF787FE2046FFF7A9FB5FE094F84F
:1055B0009C020228E1D0032855D16888A8BB480680
:1055C00002D02046FFF7D0FC2046FFF798FBBFE74C
:1055D000FFE794F89C020027022802D0032842D15A
:1055E00011E009B180293ED1080601F07F0000EBEF
:1055F000800004EB800101D5143101E001F5AA71AE
:1056000002220F602BE0080601F00F0000EB800083
:1056100004EB80000BD5808C40B101F07F0000EBE3
:10562000800004EB800514350CE020E01BE0B0F8AE
:105630006401C0B101F07F0000EB800004EB800545
:1056400005F5AA7541B1802906D02046FFF76AFD0D
:1056500010B10120286000E02F6002222946204678
:10566000FFF740FB03E029462046FFF716FB3046D4
:10567000BDE8F08170B50646087800240D4610F0AC
:10568000600003D0202801D0402817D196F89C0252
:10569000012803D0022801D003280FD1287901283E
:1056A0000CD8D6F8B8028268304690470446E8889D
:1056B000204306D13046FFF722FB02E03046FFF7D9
:1056C000ECFA204670BD704700487047285A002009
:1056D00070B50A78012302F00F054E78AB401B4CE1
:1056E000D0F81C58012E17D045EA0343C0F81C38E7
:1056F00000EB4210D0F8002B12040BD4D0F8002B92
:105700000B89C978C3F30A031A4344EA81410A4367
:10571000C0F8002B002070BD9BB21D43C0F81C5880
:1057200000EB4210D0F800391B04F3D4D0F8003954
:105730000D89C978C5F30A0589042B4341EA8251D2
:105740000B432343C0F80039E4E700000080001059
:10575000D0F800196FF30A01C0F80019D0F8041846
:1057600041F48071C0F804180020704770B50446F9
:1057700006990A9E049D0D98012916D0E06840F014
:105780004000E060204600F02BF8A16B1EB321F42E
:105790008031A163012D07D1A16841F00601A1600C
:1057A000A16841F02001A16070BDA16B21F480319E
:1057B000A163E168094A1140E160E16821F4401108
:1057C000E160012803D1E06840F48010E0602046E9
:1057D00000F006F8DEE741F48031DAE7BFFFBDFFF5
:1057E00008B500220D490092009B5B1C00938B4280
:1057F0000CD80369002BF7DA0092026942F001022B
:105800000261009A521C00928A4201D9032008BD0D
:105810000269D207F5D1002008BD0000400D030049
:1058200030B54C780A78012300EB4212012C2CD0C1
:10583000D2F8004B002C0BDAD2F8004B44F0006495
:10584000C2F8004BD2F8004B44F08044C2F8004B41
:10585000D0F83C580C7804F00F0403FA04F425EA5D
:105860000444C0F83C48D0F81C48097801F00F0106
:105870008B4024EA0341C0F81C18D2F8000B1949E8
:105880000840C2F8000B002030BDD2F80049002CBF
:105890000BDAD2F8004944F00064C2F80049D2F8AB
:1058A000004944F08044C2F80049D0F83C480D78E3
:1058B00005F00F0503FA05F5ADB2AC43C0F83C485E
:1058C000D0F81C48097801F00F018B4099B28C4345
:1058D000C0F81C48D2F8000903490840C2F8000982
:1058E000D1E700000078F3EF007833ECD0F8001E29
:1058F00021F00301C0F8001ED0F8041821F00201C5
:10590000C0F8041800207047D0F8001E21F00301F1
:10591000C0F8001ED0F8041841F00201C0F80418C5
:10592000002070472DE9F04F00250E460446DDF8B3
:105930002CC0DDF824B0109F2846294604EB8002D5
:10594000C2F80411401C0F28F8D32046C7B1806B61
:1059500020F40012A263A06B40F40022A263084668
:105960008846C4F8000ED4F800182046C4F8001881
:10597000BCF1010F16D0D0F8001841F0030116E079
:10598000D0F8040840F00202C4F80428A06B40F4E8
:105990000012A263A06B20F40022A263A06B20F48B
:1059A0008022DBE7D0F800180BB141F00101C0F80C
:1059B0000018102100F094FA00B10125204600F0F3
:1059C0007BFA00B101254046C4F81088C4F8148859
:1059D000C4F81C8800214FF000694FF0904A4FF640
:1059E0007F3314E004EB4112D2F800C9BCF1000F80
:1059F00006DA11B1C2F800A904E0C4F8009901E088
:105A0000C2F80009C2F81009C2F80839491C8E42D0
:105A1000E8D8002115E000BF04EB4112D2F800CB1A
:105A2000BCF1000F06DA11B1C2F800AB04E0C4F813
:105A3000009B01E0C2F8000BC2F8100BC2F8083B53
:105A4000491C8E42E8D8D4F8101821F48072C4F8AA
:105A50001028A0616FF080406061BBF1000F03D19E
:105A6000A06940F01000A061A06909490843A06145
:105A70000C9818B1A06940F00800A061012F03D173
:105A8000A06904490843A0612846BDE8F08F0000E2
:105A900000383C8004000040816821F001018160F1
:105AA0000020704770B50D784E78434CEBB200EB98
:105AB0004313012E1FD0D3F8100B6FF31200C3F85D
:105AC000100BD3F8100B2040C3F8100B486908B135
:105AD00088684861D3F8100B40F40020C3F8100B1D
